:10000000E429FF1B0B2883137F1883170008840A39
:100010000319FF0A080000308A000408840A8207D6
:10002000003478342D3449344D34553433342D3440
:10003000533441342D34533479346E3463342034A2
:10004000763431342E3430342E3432340D340A3494
:0200500000347A
:1002A200CB004B08D30067210800CB004B08B000FD
:1002B200630030100800313430343034303430349C
:1002C200303430343034303430340034D3000A30F7
:1002D200D200871073290708FD39531802388700A6
:1002E2000314D30C0830D100D10B7529D20B6C2921
:1002F200080087294D08FF004C0884000120512185
:100302000130CC070318CD0A0030CD074D08FF009D
:100312004C0884000120003A031D902991297B2971
:10032200080070309004881086108714081113306A
:1003320056210130CC008030CD007A2100300519E1
:100342000130CE0050084E06031DA829A929AA296A
:100352009F294E08D000400851212C3051214130B4
:10036200CC000030CD007A210A30512131304006D4
:10037200031DBC29BD29C0293030C000C22931303B
:10038200C0004930CF000130FF004F0884007F08D1
:1003920080073A300002031CCF29D0299F294F0839
:1003A2008400303080000130CF024F08403A031DF4
:1003B200DB29DC29C4294930CF004F0884002F30C3
:1003C2008000C42900285C21C0005D21C1005E219B
:1003D200C2005F21C3006021C4006121C500622107
:1003E200C6006321C7006421C8006521C9006621D7
:0E03F200CA00D001D101D201D30183019229AA
:02400E00EE3F83
:00000001FF
