:10000000E429FF1B0B2883137F1883170008840A39
:100010000319FF0A080000308A000408840A8207D6
:10002000003478342D3449344D34553433342D3440
:10003000533441342D34533479346E3463342034A2
:10004000763431342E3430342E3434340A3400349F
:10029E00CB004B08D40065210800CB004B08B00002
:1002AE0063003010080031343034303430343034A0
:1002BE00303430343034303430340034D4000A30FA
:1002CE00D300871071290708FD39541802388700AA
:1002DE000314D40C0830D200D20B7329D30B6A2925
:1002EE00080085294D08FF004C08840001204F218D
:1002FE000130CC070318CD0A0030CD074D08FF00A2
:10030E004C0884000120003A031D8E298F2979297B
:10031E00080070309004881086108714081113306E
:10032E0054210130CC008030CD007821050CCE0058
:10033E004E0C0139CF0051084F06031DA729A829DD
:10034E00A9299D294F08D10040084F212C304F215B
:10035E004130CC000030CD0078210A304F213130B1
:10036E004006031DBB29BC29BF293030C000C1295E
:10037E003130C0004930D000500884000130800771
:10038E003A300002031CCC29CD299D295008840047
:10039E0030308000FF30D00701305007CE004130A2
:1003AE004E06031DDB29DC29C3294930D000500835
:1003BE0084002F308000C32900285A21C0005B2101
:1003CE00C1005C21C2005D21C3005E21C4005F211B
:1003DE00C5006021C6006121C7006221C8006321EB
:1003EE00C9006421CA00D101D201D301D401830115
:0203FE00902944
:02400E00EE3F83
:00000001FF
